{
  "_format": "hh-sol-artifact-1",
  "contractName": "IdentityVerification",
  "sourceName": "contracts/IdentityVerification.sol",
  "abi": [
    {
      "inputs": [],
      "stateMutability": "nonpayable",
      "type": "constructor"
    },
    {
      "anonymous": false,
      "inputs": [
        {
          "indexed": false,
          "internalType": "string",
          "name": "studentId",
          "type": "string"
        },
        {
          "indexed": false,
          "internalType": "string",
          "name": "documentHash",
          "type": "string"
        },
        {
          "indexed": false,
          "internalType": "uint256",
          "name": "timestamp",
          "type": "uint256"
        }
      ],
      "name": "RecordAdded",
      "type": "event"
    },
    {
      "inputs": [],
      "name": "admin",
      "outputs": [
        {
          "internalType": "address",
          "name": "",
          "type": "address"
        }
      ],
      "stateMutability": "view",
      "type": "function"
    },
    {
      "inputs": [
        {
          "internalType": "string",
          "name": "_studentId",
          "type": "string"
        }
      ],
      "name": "getVerificationRecord",
      "outputs": [
        {
          "internalType": "string",
          "name": "",
          "type": "string"
        },
        {
          "internalType": "string",
          "name": "",
          "type": "string"
        },
        {
          "internalType": "uint256",
          "name": "",
          "type": "uint256"
        },
        {
          "internalType": "bool",
          "name": "",
          "type": "bool"
        }
      ],
      "stateMutability": "view",
      "type": "function"
    },
    {
      "inputs": [
        {
          "internalType": "string",
          "name": "_studentId",
          "type": "string"
        },
        {
          "internalType": "string",
          "name": "_documentHash",
          "type": "string"
        }
      ],
      "name": "storeVerificationHash",
      "outputs": [],
      "stateMutability": "nonpayable",
      "type": "function"
    }
  ],
  "bytecode": "0x608060405234801561001057600080fd5b50336000806101000a81548173ffffffffffffffffffffffffffffffffffffffff021916908373ffffffffffffffffffffffffffffffffffffffff160217905550610d9b806100606000396000f3fe608060405234801561001057600080fd5b50600436106100415760003560e01c806361de44b414610046578063bf3be78114610079578063f851a44014610095575b600080fd5b610060600480360381019061005b9190610616565b6100b3565b6040516100709493929190610712565b60405180910390f35b610093600480360381019061008e9190610765565b6102c1565b005b61009d610498565b6040516100aa919061081e565b60405180910390f35b6060806000806001856040516100c99190610875565b908152602001604051809103902060030160009054906101000a900460ff16610127576040517f08c379a000000000000000000000000000000000000000000000000000000000815260040161011e906108fe565b60405180910390fd5b60006001866040516101399190610875565b90815260200160405180910390206040518060800160405290816000820180546101629061094d565b80601f016020809104026020016040519081016040528092919081815260200182805461018e9061094d565b80156101db5780601f106101b0576101008083540402835291602001916101db565b820191906000526020600020905b8154815290600101906020018083116101be57829003601f168201915b505050505081526020016001820180546101f49061094d565b80601f01602080910402602001604051908101604052809291908181526020018280546102209061094d565b801561026d5780601f106102425761010080835404028352916020019161026d565b820191906000526020600020905b81548152906001019060200180831161025057829003601f168201915b50505050508152602001600282015481526020016003820160009054906101000a900460ff161515151581525050905080600001518160200151826040015183606001519450945094509450509193509193565b60008054906101000a900473ffffffffffffffffffffffffffffffffffffffff1673ffffffffffffffffffffffffffffffffffffffff163373ffffffffffffffffffffffffffffffffffffffff161461034f576040517f08c379a0000000000000000000000000000000000000000000000000000000008152600401610346906109f0565b60405180910390fd5b60018260405161035f9190610875565b908152602001604051809103902060030160009054906101000a900460ff16156103be576040517f08c379a00000000000000000000000000000000000000000000000000000000081526004016103b590610a82565b60405180910390fd5b6040518060800160405280838152602001828152602001428152602001600115158152506001836040516103f29190610875565b908152602001604051809103902060008201518160000190816104159190610c4e565b50602082015181600101908161042b9190610c4e565b506040820151816002015560608201518160030160006101000a81548160ff0219169083151502179055509050507f2fda3ce68e3316f21c26863e3b64c0bca4dfc4d6cb5777ef08d41c56482e222182824260405161048c93929190610d20565b60405180910390a15050565b60008054906101000a900473ffffffffffffffffffffffffffffffffffffffff1681565b6000604051905090565b600080fd5b600080fd5b600080fd5b600080fd5b6000601f19601f8301169050919050565b7f4e487b7100000000000000000000000000000000000000000000000000000000600052604160045260246000fd5b610523826104da565b810181811067ffffffffffffffff82111715610542576105416104eb565b5b80604052505050565b60006105556104bc565b9050610561828261051a565b919050565b600067ffffffffffffffff821115610581576105806104eb565b5b61058a826104da565b9050602081019050919050565b82818337600083830152505050565b60006105b96105b484610566565b61054b565b9050828152602081018484840111156105d5576105d46104d5565b5b6105e0848285610597565b509392505050565b600082601f8301126105fd576105fc6104d0565b5b813561060d8482602086016105a6565b91505092915050565b60006020828403121561062c5761062b6104c6565b5b600082013567ffffffffffffffff81111561064a576106496104cb565b5b610656848285016105e8565b91505092915050565b600081519050919050565b600082825260208201905092915050565b60005b8381101561069957808201518184015260208101905061067e565b60008484015250505050565b60006106b08261065f565b6106ba818561066a565b93506106ca81856020860161067b565b6106d3816104da565b840191505092915050565b6000819050919050565b6106f1816106de565b82525050565b60008115159050919050565b61070c816106f7565b82525050565b6000608082019050818103600083015261072c81876106a5565b9050818103602083015261074081866106a5565b905061074f60408301856106e8565b61075c6060830184610703565b95945050505050565b6000806040838503121561077c5761077b6104c6565b5b600083013567ffffffffffffffff81111561079a576107996104cb565b5b6107a6858286016105e8565b925050602083013567ffffffffffffffff8111156107c7576107c66104cb565b5b6107d3858286016105e8565b9150509250929050565b600073ffffffffffffffffffffffffffffffffffffffff82169050919050565b6000610808826107dd565b9050919050565b610818816107fd565b82525050565b6000602082019050610833600083018461080f565b92915050565b600081905092915050565b600061084f8261065f565b6108598185610839565b935061086981856020860161067b565b80840191505092915050565b60006108818284610844565b915081905092915050565b7f4e6f2076616c6964207265636f726420666f756e6420666f722074686973207360008201527f747564656e742049440000000000000000000000000000000000000000000000602082015250565b60006108e860298361066a565b91506108f38261088c565b604082019050919050565b60006020820190508181036000830152610917816108db565b9050919050565b7f4e487b7100000000000000000000000000000000000000000000000000000000600052602260045260246000fd5b6000600282049050600182168061096557607f821691505b6020821081036109785761097761091e565b5b50919050565b7f4f6e6c79207468652061646d696e2063616e20706572666f726d20746869732060008201527f616374696f6e0000000000000000000000000000000000000000000000000000602082015250565b60006109da60268361066a565b91506109e58261097e565b604082019050919050565b60006020820190508181036000830152610a09816109cd565b9050919050565b7f5265636f726420616c72656164792065786973747320666f722074686973207360008201527f747564656e740000000000000000000000000000000000000000000000000000602082015250565b6000610a6c60268361066a565b9150610a7782610a10565b604082019050919050565b60006020820190508181036000830152610a9b81610a5f565b9050919050565b60008190508160005260206000209050919050565b60006020601f8301049050919050565b600082821b905092915050565b600060088302610b047fffffffffffffffffffffffffffffffffffffffffffffffffffffffffffffffff82610ac7565b610b0e8683610ac7565b95508019841693508086168417925050509392505050565b6000819050919050565b6000610b4b610b46610b41846106de565b610b26565b6106de565b9050919050565b6000819050919050565b610b6583610b30565b610b79610b7182610b52565b848454610ad4565b825550505050565b600090565b610b8e610b81565b610b99818484610b5c565b505050565b5b81811015610bbd57610bb2600082610b86565b600181019050610b9f565b5050565b601f821115610c0257610bd381610aa2565b610bdc84610ab7565b81016020851015610beb578190505b610bff610bf785610ab7565b830182610b9e565b50505b505050565b600082821c905092915050565b6000610c2560001984600802610c07565b1980831691505092915050565b6000610c3e8383610c14565b9150826002028217905092915050565b610c578261065f565b67ffffffffffffffff811115610c7057610c6f6104eb565b5b610c7a825461094d565b610c85828285610bc1565b600060209050601f831160018114610cb85760008415610ca6578287015190505b610cb08582610c32565b865550610d18565b601f198416610cc686610aa2565b60005b82811015610cee57848901518255600182019150602085019450602081019050610cc9565b86831015610d0b5784890151610d07601f891682610c14565b8355505b6001600288020188555050505b505050505050565b60006060820190508181036000830152610d3a81866106a5565b90508181036020830152610d4e81856106a5565b9050610d5d60408301846106e8565b94935050505056fea264697066735822122000746f62bda76675375f7d5c0a90d8df0577972125b5ca258aa4b76ab20632c064736f6c63430008180033",
  "linkReferences": {},
  "deployedLinkReferences": {}
}